:020000040000FA
:020000000528D1
:040002000034003492
:080008003F2883160313FF30AB
:1000100086009600831603130130850083160317AC
:1000200001308800890183160313193099002430A8
:100030009800831203138030980083120313413019
:100040009F00831603139F0107308100831603135B
:10005000FF309500831203138B01E8308B0083126D
:1000600003138C01831603138C010C1783120313E3
:10007000810183120313A701FF30A3003E280B194F
:100080004828831203130C1B4D280B186428090001
:100090000B11831203139F140900831203130C1313
:1000A0008312031378301E0203185D28A708031972
:1000B0000900A70176308E200900A708031D09005A
:1000C000271475308E2009000B109420831203131F
:1000D00023080606A4000608A300A5010310831246
:1000E0000313A40803190900A40C031C882806089C
:1000F000A8002508A120A60028082605031D84289D
:100100002508AA208E2088282508B3208E2088283C
:10011000A50A08302502031D6F2809008312031366
:100120000C1E8E28990008000830A000FA30A100AB
:100130000130A200A20B9A28A10B9828A00B9628A8
:1001400008008207013402340434083410342034A7
:1001500040348034820761346234633464346534FB
:10016000663467346834820769346A346B346C34BB
:080170006D346E346F347034FD
:02400E00F42F8D
:00000001FF
