:020000040000FA
:020000000528D1
:040002000034003492
:0800080047288316031385014C
:10001000F0308600D7308100A0308B0083120313AC
:100020003B30810083120313A001A101A201A301AF
:100030008601061420083C20850032200610861414
:1000400021083C20850032208610061522083C201D
:10005000850032200611861523083C2085003220B9
:1000600086111928831203131830B0004430B100F0
:10007000B10B3828B00B080082073F3406345B34DC
:100080004F3466346D347D3407347F346734A600D2
:10009000030EA500831203130B1D70280B1183128E
:1000A0000313A40A14302402031D7028A401A00A1B
:1000B0000A302002031D7028A001A10A0630210287
:1000C000031D7028A101A20A0A302202031D702814
:1000D000A201A30A06302302031D7028A301702881
:1000E000831203133B30810083120313250E830018
:0400F00026080900D5
:02400E00F42F8D
:00000001FF
